:100000000C943A000C9457000C9457000C94570031
:100010000C949C000C9424030C9457000C945700EF
:100020000C9457000C9457000C9457000C94AE029B
:100030000C9457000C9457000C9459000C945700E2
:100040000C9457000C9457000C9423050C94570003
:100050000C9457000C9457000C9457000C945700C4
:100060000C9457000C9457006364696E6F7073753D
:1000700078585B0011241FBECFEFD8E0DEBFCDBFA4
:1000800012E0A0E0B1E0E6E8F1E202C005900D92D6
:10009000A837B107D9F712E0A8E7B2E001C01D9276
:1000A000AE3DB107E1F70E9472030C94C1100C94AD
:1000B00000001F920F920FB60F9211242F933F93BF
:1000C0004F935F938F939F93AF93BF9380918102E0
:1000D000813029F520918602309187022F5F3F4FB2
:1000E0003093870220938602442737FD4095542F92
:1000F0008091B6029091B702A091B802B091B90276
:10010000B695A79597958795281739074A075B07EE
:1001100030F0109287021092860210928102BF91F5
:10012000AF919F918F915F914F913F912F910F9040
:100130000FBE0F901F9018951F920F920FB60F923F
:1001400011242F938F939F9386B180939102982FC0
:1001500092709093CB02807280938F0220919002D4
:100160002223A9F48091CB02882331F080917F0271
:100170009091800201965BC080918F02882309F4E0
:100180005DC080917F0290918002019741C0213033
:10019000A9F480918F02882331F080917F029091A1
:1001A0008002019626C08091CB02882309F046C0C8
:1001B00080917F029091800201970BC02230F9F468
:1001C00080918F02882361F480917F029091800258
:1001D00001969093800280937F02109296022EC027
:1001E0008091CB02882351F180917F02909180020F
:1001F00001979093800280937F0283E01DC08091DD
:10020000CB02882359F480917F029091800201965D
:100210009093800280937F0282E00EC080918F02D3
:10022000882361F480917F029091800201979093DE
:10023000800280937F0281E08093960290919602E3
:10024000921729F081E080937E0290939002809132
:100250007F0290918002181619061CF081E090E050
:1002600009C080917F02909180028159914034F0C1
:1002700080E991E09093800280937F029F918F911B
:100280002F910F900FBE0F901F9018953A9A429899
:100290003B9A4398089523B130E002C035952795E5
:1002A0008A95E2F7822F81700895439A08954398C2
:1002B0000895429A089542980895DF92EF92FF922E
:1002C0000F931F938091920290919302DD246AE034
:1002D00070E00E94290A882777FD8095982F0E9458
:1002E00082077B018C016091AD027091AE0288277C
:1002F00077FD8095982F0E9482079B01AC01C80171
:10030000B7010E945207181614F4DD24D3948D2DE2
:100310001F910F91FF90EF90DF900895CF93DF939F
:10032000EC019C0140E050E060E472E48FE090E07A
:100330000E943C0A2093B6023093B7024093B80261
:100340005093B9028091810203C0449A219781E0C1
:100350002097D9F780938102DF91CF910895EF9292
:10036000FF920F931F93CF93DF9360917802709168
:100370007902882777FD8095982F0E9482072CEAC2
:1003800035EC47E257E30E94580620E030E04AEAA5
:1003900053E40E94580620E030E048EC52E40E940A
:1003A000580620E030E040E251E40E94580620E088
:1003B00030E040E05FE30E9458060E94E00770933F
:1003C00093026093920280917F02909180029093B9
:1003D000AE028093AD0280917F0290918002909353
:1003E000CF028093CE0280917B022AEB32E0C7E9F4
:1003F000D2E092E1E92E91E0F92E882309F047C07E
:100400008091920290919302009192021091930236
:100410004DB75EB74A5050400FB6F8945EBF0FBE5E
:100420004DBFEDB7FEB73196ADB7BEB712963C9350
:100430002E93119721E130E03383228320E031E0D5
:10044000358324836AE070E00E94290A77836683FB
:10045000C8016AE070E00E94290A918780870E94A3
:10046000C40A0F900F90EDB7FEB73196ADB7BEB787
:100470001296DC93CE93119788E090E09383828369
:10048000F582E4828091AD029091AE0243C08091EA
:100490009202909193020091920210919302ADB753
:1004A000BEB71A970FB6F894BEBF0FBEADBFEDB77B
:1004B000FEB7319612963C932E93119721E130E0CE
:1004C000338322832AE131E0358324836AE070E0BC
:1004D0000E94290A77836683C8016AE070E00E945F
:1004E000290A918780870E94C40A0F900F90EDB768
:1004F000FEB73196ADB7BEB71296DC93CE93119787
:1005000088E090E093838283F582E4828091CE023A
:100510009091CF02978386830E94C40A4DB75EB73D
:10052000485F5F4F0FB6F8945EBF0FBE4DBF80E0CF
:1005300060E00E9446048AEB92E00E942A0481E077
:1005400060E00E94460487E992E00E942A04DF915D
:10055000CF911F910F91FF90EF9008951F920F92EE
:100560000FB60F9211242F933F934F935F936F9386
:100570007F938F939F93AF93BF93EF93FF9380915C
:100580007A02882349F0809178029091790201964D
:100590009093790280937802809178029091790209
:1005A0008151994074F01092790210927802109261
:1005B0007A0280E068E00E9446048CE291E00E94AA
:1005C0002A04FF91EF91BF91AF919F918F917F91FD
:1005D0006F915F914F913F912F910F900FBE0F90B0
:1005E0001F9018951C991AC01C9BFECF80917B020E
:1005F000813039F410927B0284E690E00E94810FF2
:1006000007C081E080937B0288EC90E00E94810F1C
:100610009093800280937F020E94AF0108951B99FE
:1006200012C01B9BFECF81E00E943604109279021B
:100630001092780281E00E94B70485E38A95F1F771
:1006400080E00E94B70408951F920F920FB60F9298
:1006500011242F933F934F935F936F937F938F93C7
:100660009F93AF93BF93EF93FF9383E00E94BD04EA
:10067000882321F081E080937A0202C010927A02EE
:10068000FF91EF91BF91AF919F918F917F916F916A
:100690005F914F913F912F910F900FBE0F901F9040
:1006A00018950E9450040E94A704809196026091C0
:1006B00090020E94C7040E9446010E94E30487E65C
:1006C00090E00E94E60480EA90E00E94950484E1B4
:1006D00090E00E94D604E1ECF0E0808180688083A5
:1006E00078940895CF93DF930E9451030E94790478
:1006F00081E00E94360484E690E00E94810F90938E
:10070000800280937F0280917F02909180028159C4
:1007100091403CF480917F02909180021816190656
:1007200054F484E690E060E070E00E94870F10923D
:10073000800210927F020E94AF0181E069E00E9476
:10074000460484E391E00E942A04C0E9D1E00E94BB
:100750000F030E94F2020E944F0680917E028823BE
:10076000B9F010927E0280917B02882339F4609167
:100770007F027091800284E690E006C060917F0263
:100780007091800288EC90E00E94870F0E94AF0178
:1007900080917A02882379F088EC90E0FE0131970D
:1007A000F1F70197D9F70E94AF01809192029091E1
:1007B00093020E94920580917B02882349F40E9453
:1007C0005D01882319F0439A429802C0429A4398E7
:1007D00080917B02813009F0BACF43984298809192
:1007E0008D0290918E026AE070E00E94290A809149
:1007F000CE029091CF02681779070CF0A8CF8091B4
:10080000CC029091CD02019709F0A1CF84EE90E047
:100810000E948E011092CD021092CC0298CF9BB113
:100820009F709BB99BB1807F892B8BB9299A299A9C
:10083000299808951F93182F289A0E940F04812F3A
:100840008295807F0E940F0480E49FE10197F1F779
:100850001F910895CF93DF93EC0102C00E941A0408
:1008600089918823D9F7DF91CF9108951F93182F8D
:1008700028980E940F04812F8295807F0E940F0488
:1008800080E49FE10197F1F71F910895882319F4FF
:10089000862F805802C0862F80540E943604089507
:1008A00084B1836084B98AB1806F8AB980E69AEE98
:1008B0000197F1F780E30E940F0480E29EE4019724
:1008C000F1F780E30E940F0480EE91E00197F1F7C9
:1008D00080E30E940F0480E20E940F0480E49FE105
:1008E0000197F1F788E20E9436048FE00E943604F7
:1008F000089581E00E9436048FE391E00E942A046B
:1009000081E060E00E9446048CE491E00E942A04A9
:1009100080E197E220E931E0F9013197F1F70197A1
:10092000D9F781E00E9436040895A1E8B0E02C9147
:1009300028602C93EFE6F0E02081226020839093E2
:100940008900809388008C9181608C930895259A0A
:100950002D985B9A2B9A2C9AE8E6F0E080818460CF
:100960008083EDE6F0E080818860808308958823AD
:1009700011F42D9808952D9A089529B130E002C000
:10098000359527958A95E2F7822F8170089588B171
:10099000826288B9E8E6F0E0808182608083ECE6DC
:1009A000F0E080818262808386B1089595B592607F
:1009B00095BDEEE6F0E090819260908387BD85B5AD
:1009C000826085BD08953C9A4498089587E690E03A
:1009D0009093C5008093C40086E08093C200E1EC50
:1009E000F0E0808188618083529A5A980895982F08
:1009F0008091C00085FFFCCF9093C6000895AC01A4
:100A00001092D1021092D00210C0FA01E20FF31F2F
:100A1000E0818091C00085FFFCCFE093C6002F5F8E
:100A20003F4F3093D1022093D0022091D0023091D9
:100A3000D102273031054CF308951092D902089560
:100A40001092D20208951F920F920FB60F921124A6
:100A50002F938F939F93EF93FF932091C6008091E4
:100A60008B02882369F4203409F04CC01092D9021B
:100A7000109289021092880281E080938B0242C01A
:100A8000243299F48091880290918902892B21F077
:100A900081E080938C0204C01092D90210928C02E3
:100AA000109289021092880220C0203419F410920A
:100AB000D90222C0822F80538A30D0F480918802DC
:100AC00090918902FC01E752FD4F2083019690939B
:100AD0008902809388020597A8F01092D90210929B
:100AE00089021092880210928C0210928B020AC026
:100AF0001092D90210928B021092890210928802F1
:100B000010928C0281E090E09093CD028093CC0211
:100B1000FF91EF919F918F912F910F900FBE0F90AA
:100B20001F9018950F931F9302ED12E01092D202BE
:100B30002DB73EB7285030400FB6F8943EBF0FBED9
:100B40002DBFEDB7FEB73196ADB7BEB712961C9369
:100B50000E93119727E030E0338322832AE531E0BA
:100B600035832483978386830E94C40A2DB73EB7BA
:100B7000285F3F4F0FB6F8943EBF0FBE2DBFC80190
:100B80000E94FF041F910F9108950F931F93DF930D
:100B9000CF93CDB7DEB729970FB6F894DEBF0FBE5F
:100BA000CDBF00D000D000D0EDB7FEB73196ADB7C5
:100BB000BEB712969C938E9311978FE591E0938325
:100BC0008283CE010196958384830E94F50A8981F0
:100BD0009A8190938E0280938D022DB73EB72A5F43
:100BE0003F4F0FB6F8943EBF0FBE2DBF815A9F40B6
:100BF0003CF081E069E00E94460482E691E03EC05C
:100C000081E069E00E94460420918D0230918E02BD
:100C10008DB79EB70A970FB6F8949EBF0FBE8DBFD3
:100C2000EDB7FEB731968E010D5F1F4FADB7BEB762
:100C300012961C930E93119787E090E09383828322
:100C40008AE691E095838483C9016AE070E00E949E
:100C5000290A77836683C9016AE070E00E94290A45
:100C6000918780870E94C40A2DB73EB7265F3F4F09
:100C70000FB6F8943EBF0FBE2DBFC8010E942A04D4
:100C80001092D90210928C0229960FB6F894DEBF0A
:100C90000FBECDBFCF91DF911F910F91089580912D
:100CA0008C02813021F489ED92E00E94C5050895FF
:100CB000A0E2B0E0EEE5F6E00C948D0A69837A8359
:100CC0008B839C832D833E834F835887CE0101966F
:100CD000BE01675F7F4F0E945809CE010596BE0195
:100CE0006F5E7F4F0E9458099985923088F08989FC
:100CF0008230C8F0943019F4823051F404C084304A
:100D000029F4923081F480E791E0C6C0923049F432
:100D100020E09A858A89981321E02A87CE010996D6
:100D2000BBC0823049F420E09A858A89981321E07B
:100D30002A8BCE014196B0C02D843E844F845888C2
:100D40006D887E888F88988CEE24FF248701AA24E2
:100D5000BB24650140E050E060E070E0E0E0F0E0DE
:100D6000C10181709070892BE9F0E60CF71C081D19
:100D7000191D9A01AB012A0D3B1D4C1D5D1D80E024
:100D800090E0A0E0B0E0E614F7040805190520F4AF
:100D900081E090E0A0E0B0E0BA01A901480F591F3E
:100DA0006A1F7B1FAA0CBB1CCC1CDD1C97FE08C055
:100DB00081E090E0A0E0B0E0A82AB92ACA2ADB2AA4
:100DC0003196E032F10549F0660C771C881C991CBD
:100DD0005694479437942794C3CFFA85EA892B8990
:100DE0003C898B859C85280F391F2E5F3F4F17C08C
:100DF000CA0181709070892B61F016950795F79460
:100E0000E79480E090E0A0E0B0E8E82AF92A0A2B15
:100E10001B2B76956795579547952F5F3F4F77FD2D
:100E2000E7CF0CC0440F551F661F771F17FD4160A9
:100E3000EE0CFF1C001F111F21503040403090E08D
:100E4000590790E0690790E4790760F32B8F3C8F96
:100E5000DB01CA018F779070A070B070803491056B
:100E6000A105B10561F447FD0AC0E114F1040105D3
:100E7000110529F0405C5F4F6F4F7F4F40781A8E0D
:100E8000FE1711F081E08A8F4D8F5E8F6F8F78A3F0
:100E900083E0898FCE0149960E948308A096E2E103
:100EA0000C94A90AA8E1B0E0E8E5F7E00C94990AEF
:100EB00069837A838B839C832D833E834F835887FA
:100EC00089E0E82EF12CEC0EFD1ECE010196B70153
:100ED0000E9458098E010F5E1F4FCE010596B80182
:100EE0000E9458098985823040F08989823028F033
:100EF000C701B8010E94D00901C08FEF6896E6E0F3
:100F00000C94B50AA8E0B0E0E8E8F7E00C94960A83
:100F10009B01AC0183E08983DA01C9018827B7FD11
:100F200083959927AA27BB27B82E2115310541059E
:100F3000510519F482E089833AC08823A9F0203052
:100F400080E0380780E0480780E8580729F460E02F
:100F500070E080E09FEC30C0EE24FF248701E21AAD
:100F6000F30A040B150B02C079018A018EE1C82E29
:100F7000D12CDC82CB82ED82FE820F831887C801E0
:100F8000B7010E94340801971816190684F4082E38
:100F900004C0EE0CFF1C001F111F0A94D2F7ED8253
:100FA000FE820F831887C81AD90ADC82CB82BA82E4
:100FB000CE0101960E9483082896E9E00C94B20ABB
:100FC000ACE0B0E0E6EEF7E00C949D0A69837A832A
:100FD0008B839C83CE010196BE016B5F7F4F0E9485
:100FE00058098D81823061F1823050F1843021F4D2
:100FF0008E81882351F12EC02F81388537FD20C086
:101000006E812F3131051CF06623F9F023C08EE18B
:1010100090E0821B930B29853A854B855C8504C043
:1010200056954795379527958A95D2F76623B1F05F
:1010300050954095309521953F4F4F4F5F4F0EC0D3
:1010400020E030E040E050E009C02FEF3FEF4FEFED
:101050005FE704C020E030E040E050E8B901CA0199
:101060002C96E2E00C94B90AEF92FF920F931F9333
:101070007B018C0180E0E81680E0F80681E008073B
:1010800080E0180788F48FEFE816F10401051105D8
:1010900031F028F088E090E0A0E0B0E017C080E0F8
:1010A00090E0A0E0B0E012C080E0E81680E0F80632
:1010B00080E0080781E0180728F088E190E0A0E0D0
:1010C000B0E004C080E190E0A0E0B0E020E230E0D9
:1010D00040E050E0281B390B4A0B5B0B04C016950F
:1010E0000795F794E7948A95D2F7F701E858FE4FF1
:1010F0008081281B310941095109C9011F910F91B4
:10110000FF90EF900895DF92EF92FF920F931F935D
:10111000FC01E480F58006811781D18080818230D6
:1011200048F480E090E0A0E1B0E0E82AF92A0A2B38
:101130001B2BA5C0843009F49FC0823021F4EE241B
:10114000FF24870105C0E114F1040105110519F41C
:10115000E0E0F0E096C0628173819FEF623879072A
:101160000CF05BC022E83FEF261B370B2A3131051C
:101170002CF020E030E040E050E02AC0B801A701A8
:10118000022E04C076956795579547950A94D2F735
:1011900081E090E0A0E0B0E004C0880F991FAA1F92
:1011A000BB1F2A95D2F70197A109B1098E219F2172
:1011B000A023B1230097A105B10521F081E090E0C3
:1011C000A0E0B0E09A01AB01282B392B4A2B5B2B16
:1011D000DA01C9018F779070A070B07080349105EA
:1011E000A105B10539F427FF09C0205C3F4F4F4FDF
:1011F0005F4F04C0215C3F4F4F4F5F4FE0E0F0E096
:101200002030A0E03A07A0E04A07A0E45A0710F017
:10121000E1E0F0E079018A0127C06038710564F5EA
:10122000FB01E158FF4FD801C7018F779070A07084
:10123000B07080349105A105B10539F4E7FE0DC009
:1012400080E490E0A0E0B0E004C08FE390E0A0E094
:10125000B0E0E80EF91E0A1F1B1F17FF05C0169508
:101260000795F794E794319687E016950795F794DC
:10127000E7948A95D1F705C0EE24FF248701EFEFAC
:10128000F0E06E2F679566276795902F9F77D7942C
:10129000DD24D7948E2F8695492F462B582F5D2914
:1012A000B701CA011F910F91FF90EF90DF90089551
:1012B000FC01DB01408151812281622F6F7770E058
:1012C000221F2227221F9381892F880F822B282FEC
:1012D00030E0991F9927991F11969C93119721151A
:1012E0003105A9F5411551056105710511F482E03B
:1012F00037C082E89FEF13969C938E9312979A01C2
:10130000AB0167E0220F331F441F551F6A95D1F7C9
:1013100083E08C930DC0220F331F441F551F12967C
:101320008D919C911397019713969C938E9312978E
:10133000203080E0380780E0480780E4580758F301
:1013400014962D933D934D935C93179708952F3FDB
:10135000310579F4411551056105710519F484E0F1
:101360008C93089564FF03C081E08C9312C01C929B
:1013700010C02F57304013963C932E93129783E062
:101380008C9387E0440F551F661F771F8A95D1F70E
:10139000706414964D935D936D937C9317970895A5
:1013A0001F93DC01FB019C91923008F447C08081BF
:1013B000823008F443C0943051F411961C9184306B
:1013C00099F58181682F70E0611B71093FC08430FD
:1013D00021F0923031F48230B9F18181882389F192
:1013E0002DC011961C9111978230F1F08181181750
:1013F000D9F412962D913C91139782819381821793
:10140000930794F028173907BCF014968D919D919D
:101410000D90BC91A02D24813581468157812817DC
:1014200039074A075B0718F4112341F00AC08217F5
:101430009307A407B50740F4112319F061E070E0A9
:1014400005C06FEF7FEF02C060E070E0CB011F913D
:10145000089597FB092E07260AD077FD04D027D0E0
:1014600006D000201AF4709561957F4F0895F6F725
:10147000909581959F4F089597FB092E05260ED0D4
:1014800057FD04D028D00AD0001C38F45095409560
:10149000309521953F4F4F4F5F4F0895F6F7909548
:1014A0008095709561957F4F8F4F9F4F0895AA1B30
:1014B000BB1B51E107C0AA1FBB1FA617B70710F03F
:1014C000A61BB70B881F991F5A95A9F78095909571
:1014D000BC01CD010895A1E21A2EAA1BBB1BFD0180
:1014E0000DC0AA1FBB1FEE1FFF1FA217B307E40703
:1014F000F50720F0A21BB30BE40BF50B661F771F5B
:10150000881F991F1A9469F760957095809590953A
:101510009B01AC01BD01CF0108952F923F924F92E4
:101520005F926F927F928F929F92AF92BF92CF9273
:10153000DF92EF92FF920F931F93CF93DF93CDB77C
:10154000DEB7CA1BDB0B0FB6F894DEBF0FBECDBFF4
:1015500009942A88398848885F846E847D848C84C5
:101560009B84AA84B984C884DF80EE80FD800C81CE
:101570001B81AA81B981CE0FD11D0FB6F894DEBFB1
:101580000FBECDBFED010895AEE0B0E0EAECFAE0A9
:101590000C949B0A0D891E898F89988D97FF02C034
:1015A00080E090E801979E838D831A83098386E00B
:1015B0008C839E01255E3F4FCE010196698D7A8D09
:1015C000A9010E940F0B4D815E8157FD0AC02F813A
:1015D0003885421753070CF49A01020F131FF801C4
:1015E00010822E96E4E00C94B70AAEE0B0E0EBEF88
:1015F000FAE00C949D0A85E08C838B899C899A8300
:1016000089839E01295E3F4FCE0101966D897E89B7
:10161000A9010E94700E2E96E2E00C94B90AABE08C
:10162000B0E0E5E1FBE00C948D0A3C012B015A018E
:10163000FC0117821682838181FD03C06FEF7FEF6B
:10164000C6C19AE0892E1E010894211C311CF301A9
:101650002381F20123FD859123FF81912F018823AE
:1016600009F4B2C1853239F423FD859123FF8191BC
:101670002F01853229F490E0B3010E94F80FE7CFE3
:10168000982FFF24EE249924FFE1FF15D0F09B3220
:1016900069F09C3228F4903259F0933291F40EC0E4
:1016A0009D3249F0903369F441E024C052E0F52ABC
:1016B00084E0F82A28C098E0F92A25C0E0E1FE2A53
:1016C00022C0F7FC29C0892F80538A3070F4F6FEBF
:1016D00005C0989C902C1124980E15C0E89CE02C15
:1016E0001124E80EF0E2FF2A0EC09E3229F4F6FC27
:1016F0006BC140E4F42A07C09C3619F450E8F52A7F
:1017000002C0983649F4F20123FD959123FF91918F
:101710002F01992309F0B8CF892F8554833018F011
:101720008052833038F444E050E0A40EB51E5FE3ED
:1017300059830FC0933631F0933779F0933509F020
:1017400056C020C0F5018081898342E050E0A40E9C
:10175000B51E610101E010E012C0F501C080D1802A
:10176000F6FC03C06FEF7FEF02C0692D70E042E02E
:1017700050E0A40EB51EC6010E94AB0F8C015FE7BE
:10178000F52214C0F501C080D180F6FC03C06FEFD4
:101790007FEF02C0692D70E042E050E0A40EB51E5C
:1017A000C6010E94A00F8C0150E8F52AF3FE07C085
:1017B0001AC080E290E0B3010E94F80FEA948E2DE7
:1017C00090E008171907A8F30EC0F601F7FC859101
:1017D000F7FE81916F0190E0B3010E94F80FE110D4
:1017E000EA94015010400115110579F7EAC09436CA
:1017F00011F0993669F5F7FE08C0F50120813181B5
:101800004281538184E090E00AC0F501808191819A
:101810009C01442737FD4095542F82E090E0A80EAC
:10182000B91E9FE6F92257FF09C0509540953095A3
:1018300021953F4F4F4F5F4FE0E8FE2ACA01B901A3
:10184000A1012AE030E00E943E10D82ED21840C0FC
:10185000953729F41F2D1F7E2AE030E01DC01F2D73
:10186000197F9F3661F0903720F4983509F0ACC0AD
:101870000FC0903739F0983709F0A6C004C028E0AF
:1018800030E00AC0106114FD146020E130E004C0B3
:1018900014FD166020E132E017FF08C0F5016081F9
:1018A00071818281938144E050E008C0F50180811C
:1018B0009181BC0180E090E042E050E0A40EB51EB2
:1018C000A1010E943E10D82ED2188FE7F82EF122E7
:1018D000F6FE0BC05EEFF522D91438F4F4FE07C013
:1018E000F2FC05C08FEEF82202C01D2D01C0192D9B
:1018F000F4FE0DC0FE01ED0DF11D8081803319F461
:1019000099EEF92208C01F5FF2FE05C003C08F2DBB
:10191000867809F01F5F0F2DF3FC14C0F0FE0FC096
:101920001E1510F09D2C0BC09D2C9E0C911A1E2D87
:1019300006C080E290E0B3010E94F80F1F5F1E1501
:10194000C0F304C01E1510F4E11A01C0EE2404FF18
:101950000FC080E390E0B3010E94F80F02FF1DC0AA
:1019600001FD03C088E790E00EC088E590E00BC061
:10197000802F867891F001FF02C08BE201C080E2E7
:10198000F7FC8DE290E0B3010E94F80F06C080E3FF
:1019900090E0B3010E94F80F9A94D914C0F3DA943E
:1019A000F101ED0DF11D808190E0B3010E94F80F6F
:1019B000DD20A9F706C080E290E0B3010E94F80F95
:1019C000EA94EE20C1F743CEF30166817781CB0123
:1019D0002B96E2E10C94A90AFC0120FD08C023FD2E
:1019E00005C022FF02C07383628351834083089540
:1019F000EF92FF920F931F9344FF02C033E011C098
:101A000046FF02C034E00DC0DB01FC01AA0FBB1F82
:101A1000EE1FFF1F1094D1F76A0F7B1F8E1F9F1FB1
:101A200031E0660F771F881F991F3150D1F77B0176
:101A30008C01E20EF11C011D111DA8019701B701D7
:101A4000CA011F910F91FF90EF9008950F931F937C
:101A5000CF93DF938C01C8010E94B60FEC0197FD74
:101A600008C00E948D0F892BB1F7CE01B8010E94EA
:101A70002410CE01DF91CF911F910F910895A0E026
:101A8000B0E0E5E4FDE00C94950AEC01C62E5A01A5
:101A9000122F0E94B60FAC018B3219F08D3251F427
:101AA0001068CA9409F46DC0CE010E94B60FAC0153
:101AB00097FD67C06DEFD62ED1228D2D807301F575
:101AC0004033F1F4CA9409F447C0CE010E94B60F26
:101AD000AC0197FD41C082E0D82A483711F0483563
:101AE00059F480E4D82ACA94B9F1CE010E94B60F05
:101AF000AC0199232CF430C0D6FC02C080E1D82A76
:101B0000EE24FF248701242F2053283088F0D4FCB2
:101B100009C02A3068F0D6FE05C02F7D822F815182
:101B2000863028F0CA01BE010E94241012C027503E
:101B3000C801B7014D2D0E94F80C7B018C0182E099
:101B4000D82ACA9461F0CE010E94B60FAC0197FF6B
:101B5000DACFD1FC04C015C0EE24FF248701D7FEE4
:101B600008C010950095F094E094E11CF11C011D53
:101B7000111DC501B801A7012D2D0E94EC0C81E0BB
:101B800001C080E0CDB7DEB7EAE00C94B10AA0E274
:101B9000B0E0EDECFDE00C94910A6C01A62E8A01F8
:101BA0007901FE01319680E2DF011D928A95E9F705
:101BB00070E030E060E040E050E04F01A1E0B0E0D4
:101BC000F6018381F70183FD259183FF21917F0138
:101BD000222309F47EC02E3519F44115510569F10F
:101BE000872F90E08417950744F42D3551F12D325D
:101BF00021F4332329F431E021C0332309F4622F87
:101C0000322F832F869586958695F401E80FF11D76
:101C1000832F87703D0102C0660C771C8A95E2F71E
:101C2000208126292083361711F430E007C03617AB
:101C300010F43F5FE6CF3150E4CF71E04F5F5F4F6C
:101C4000BFCF332319F08E8180628E83772359F0C2
:101C5000FE0131969E012F5D3F4F808180958193DB
:101C6000E217F307D1F7BB24B3944E010894811C0B
:101C7000911CC6010E94B60FAC0197FD22C086954B
:101C800086958695F401E80FF11D808190E09A0118
:101C90002770307002C0959587952A95E2F780FDF0
:101CA00005C0CA01B6010E9424100BC00115110520
:101CB00019F0D8014D938D01AA94BB24AA20C9F62E
:101CC00002C0BB2031F40115110529F0F801108282
:101CD00002C0EE24FF24C701A096EEE00C94AD0AEA
:101CE000A0E0B0E0E6E7FEE00C94910A5C016B0135
:101CF0003A01FC01178216828824EAC0812F90E005
:101D00000E948D0F892B21F0C5010E94260DE0C095
:101D1000153249F4F601F3FC6591F3FE61916F0110
:101D2000653269F415E2C5010E94B60F97FDDCC06B
:101D3000181709F4CDC0B5010E942410DAC06A3228
:101D400019F0162F00E006C0F3FC1591F3FE119177
:101D50006F0101E099240FC00260692D70E080E0FE
:101D600090E040E20E94F80C962EF601F3FC1591EB
:101D7000F3FE11916F01212F20532A3068F301FDEA
:101D800003C099249A9403C0992009F4B2C018366C
:101D900021F01C3699F4F6010BC0F601F3FC6591B5
:101DA000F3FE6191683619F06F01162F07C00860C5
:101DB0000460F3FC1591F3FE11916F01112309F4F6
:101DC00098C088E690E0612F70E00E94950F892B03
:101DD00009F48FC0802F00FF03C0EE24FF2407C04A
:101DE000F301E080F18022E030E0620E731E1E36C7
:101DF00051F4F5014681578160E070E0C701202F62
:101E00000E94EC0C65C0133691F481FD02C0992448
:101E10009394C5010E94B60F97FD66C0E114F104CA
:101E200019F0F70181937F019A9499F74FC01B3500
:101E300059F4C501692DA70196010E94C70D6C01D7
:101E4000009709F043C03DC0C5010E94260D97FDD3
:101E50004BC01F3659F1103728F4143629F11936C2
:101E600039F527C0133719F0153711F51DC0C50115
:101E70000E94B60FEC0197FD11C00E948D0F892BB7
:101E800029F0CE01B5010E94241008C0E114F1042C
:101E900019F0F701C1937F019A9449F7E114F10415
:101EA000A9F0F701108212C0006203C0006101C0F6
:101EB0000064C501692DA701202F0E943F0D8823D2
:101EC00029F4F5018381807379F413C000FF8394B2
:101ED000F501F380F601F3FC1591F3FE11916F010A
:101EE000112309F00BCF05C0882019F42FEF3FEF25
:101EF00002C0282D30E0C901CDB7DEB7EEE00C946A
:101F0000AD0AA8E1B0E042E050E00C949E100196CA
:101F1000272F0E94AD100C94AC1091112FC180326C
:101F200019F089508550D0F70895FC0105900616E8
:101F300021F00020D9F7C00108953197CF0108950D
:101F4000FC010590615070400110D8F78095909584
:101F50008E0F9F1F0895FC01615070400190011089
:101F6000D8F7809590958E0F9F1F0895CF93DF939C
:101F7000EC014B8140FF1AC046FF0AC04F7B4B83E8
:101F80008E819F8101969F838E838A81282F2BC00B
:101F900042FF13C0E881F9818081282F332727FD74
:101FA00030952115310529F440624B832FEF3FEF27
:101FB0001BC03196F983E88311C0EA85FB85CE0109
:101FC00009959C0197FF0AC09B812F5F3F4F11F03D
:101FD00080E201C080E1892B8B83E8CF8E819F81D5
:101FE00001969F838E8330E0C901DF91CF910895E0
:101FF0000F931F93CF93DF938C01EB018B8181FFB4
:102000001BC082FF0DC02E813F818C819D812817CE
:10201000390764F4E881F9810193F983E88306C004
:10202000E885F985802F0995892B31F48E819F8170
:1020300001969F838E8302C00FEF1FEFC801DF91CF
:10204000CF911F910F9108959C01FB01838180FF27
:1020500011C086FD0FC09FEF2F3F390759F0228333
:1020600080648F7D838386819781019797838683A0
:1020700030E002C02FEF3FEFC9010895FA01AA270F
:10208000283051F1203181F1E8946F936E7F6E5FBB
:102090007F4F8F4F9F4FAF4FB1E03ED0B4E03CD069
:1020A000670F781F891F9A1FA11D680F791F8A1F4C
:1020B000911DA11D6A0F711D811D911DA11D20D0B3
:1020C00009F468943F912AE0269F11243019305D6D
:1020D0003193DEF6CF010895462F4770405D41935E
:1020E000B3E00FD0C9F7F6CF462F4F70405D4A33AB
:1020F00018F0495D31FD4052419302D0A9F7EACF73
:10210000B4E0A6959795879577956795BA95C9F7A1
:1021100000976105710508959B01AC010A2E069494
:102120005795479537952795BA95C9F7620F731F4D
:10213000841F951FA01D0895DC01CB01FC01F999B6
:10214000FECF06C0F2BDE1BDF89A319600B40D9203
:1021500041505040B8F70895262FF999FECF92BD0F
:1021600081BDF89A019700B4021639F01FBA20BD5C
:102170000FB6F894FA9AF99A0FBE0895992788270E
:062180000895F894FFCF62
:102186004C6F63616C2020202020202533642E258F
:1021960064004D696E3D2533640052656D6F74654C
:1021A60020202020202533642E256400746F6F20A4
:1021B60066617200302E3000403030303024005AD4
:1021C60068656E6768616F20446169004545313016
:1021D600392050726F6A65637400402564240025B7
:1021E6006400746F6F206661720025642E2564009A
:1021F60000000000000000000001020203030303C8
:102206000404040404040404050505050505050580
:102216000505050505050505060606060606060660
:102226000606060606060606060606060606060648
:102236000606060606060606070707070707070730
:102246000707070707070707070707070707070718
:102256000707070707070707070707070707070708
:1022660007070707070707070707070707070707F8
:1022760007070707070707070808080808080808E0
:1022860008080808080808080808080808080808C8
:1022960008080808080808080808080808080808B8
:1022A60008080808080808080808080808080808A8
:1022B6000808080808080808080808080808080898
:1022C6000808080808080808080808080808080888
:1022D6000808080808080808080808080808080878
:1022E6000808080808080808080808080808080868
:0822F6000808080808080808A0
:00000001FF
